{
  "_format": "hh-sol-artifact-1",
  "contractName": "NFTMarketplace",
  "sourceName": "contracts/NFTMarketplace.sol",
  "abi": [
    {
      "inputs": [],
      "stateMutability": "nonpayable",
      "type": "constructor"
    },
    {
      "anonymous": false,
      "inputs": [
        {
          "indexed": true,
          "internalType": "address",
          "name": "owner",
          "type": "address"
        },
        {
          "indexed": true,
          "internalType": "address",
          "name": "approved",
          "type": "address"
        },
        {
          "indexed": true,
          "internalType": "uint256",
          "name": "tokenId",
          "type": "uint256"
        }
      ],
      "name": "Approval",
      "type": "event"
    },
    {
      "anonymous": false,
      "inputs": [
        {
          "indexed": true,
          "internalType": "address",
          "name": "owner",
          "type": "address"
        },
        {
          "indexed": true,
          "internalType": "address",
          "name": "operator",
          "type": "address"
        },
        {
          "indexed": false,
          "internalType": "bool",
          "name": "approved",
          "type": "bool"
        }
      ],
      "name": "ApprovalForAll",
      "type": "event"
    },
    {
      "anonymous": false,
      "inputs": [
        {
          "indexed": true,
          "internalType": "address",
          "name": "previousOwner",
          "type": "address"
        },
        {
          "indexed": true,
          "internalType": "address",
          "name": "newOwner",
          "type": "address"
        }
      ],
      "name": "OwnershipTransferred",
      "type": "event"
    },
    {
      "anonymous": false,
      "inputs": [
        {
          "indexed": true,
          "internalType": "address",
          "name": "from",
          "type": "address"
        },
        {
          "indexed": true,
          "internalType": "address",
          "name": "to",
          "type": "address"
        },
        {
          "indexed": true,
          "internalType": "uint256",
          "name": "tokenId",
          "type": "uint256"
        }
      ],
      "name": "Transfer",
      "type": "event"
    },
    {
      "inputs": [
        {
          "internalType": "address",
          "name": "to",
          "type": "address"
        },
        {
          "internalType": "uint256",
          "name": "tokenId",
          "type": "uint256"
        }
      ],
      "name": "approve",
      "outputs": [],
      "stateMutability": "nonpayable",
      "type": "function"
    },
    {
      "inputs": [
        {
          "internalType": "address",
          "name": "owner",
          "type": "address"
        }
      ],
      "name": "balanceOf",
      "outputs": [
        {
          "internalType": "uint256",
          "name": "",
          "type": "uint256"
        }
      ],
      "stateMutability": "view",
      "type": "function"
    },
    {
      "inputs": [
        {
          "internalType": "string",
          "name": "_tokenURI",
          "type": "string"
        },
        {
          "internalType": "uint256",
          "name": "price",
          "type": "uint256"
        }
      ],
      "name": "createToken",
      "outputs": [
        {
          "internalType": "uint256",
          "name": "",
          "type": "uint256"
        }
      ],
      "stateMutability": "payable",
      "type": "function"
    },
    {
      "inputs": [
        {
          "internalType": "uint256",
          "name": "tokenId",
          "type": "uint256"
        }
      ],
      "name": "executeSale",
      "outputs": [],
      "stateMutability": "payable",
      "type": "function"
    },
    {
      "inputs": [],
      "name": "getAllNFTs",
      "outputs": [
        {
          "components": [
            {
              "internalType": "uint256",
              "name": "tokenId",
              "type": "uint256"
            },
            {
              "internalType": "address payable",
              "name": "owner",
              "type": "address"
            },
            {
              "internalType": "address payable",
              "name": "seller",
              "type": "address"
            },
            {
              "internalType": "uint256",
              "name": "price",
              "type": "uint256"
            },
            {
              "internalType": "bool",
              "name": "currentlyListed",
              "type": "bool"
            }
          ],
          "internalType": "struct NFTMarketplace.ListedToken[]",
          "name": "",
          "type": "tuple[]"
        }
      ],
      "stateMutability": "view",
      "type": "function"
    },
    {
      "inputs": [
        {
          "internalType": "uint256",
          "name": "tokenId",
          "type": "uint256"
        }
      ],
      "name": "getApproved",
      "outputs": [
        {
          "internalType": "address",
          "name": "",
          "type": "address"
        }
      ],
      "stateMutability": "view",
      "type": "function"
    },
    {
      "inputs": [],
      "name": "getCurrentToken",
      "outputs": [
        {
          "internalType": "uint256",
          "name": "",
          "type": "uint256"
        }
      ],
      "stateMutability": "view",
      "type": "function"
    },
    {
      "inputs": [],
      "name": "getLatestIdToListedToken",
      "outputs": [
        {
          "components": [
            {
              "internalType": "uint256",
              "name": "tokenId",
              "type": "uint256"
            },
            {
              "internalType": "address payable",
              "name": "owner",
              "type": "address"
            },
            {
              "internalType": "address payable",
              "name": "seller",
              "type": "address"
            },
            {
              "internalType": "uint256",
              "name": "price",
              "type": "uint256"
            },
            {
              "internalType": "bool",
              "name": "currentlyListed",
              "type": "bool"
            }
          ],
          "internalType": "struct NFTMarketplace.ListedToken",
          "name": "",
          "type": "tuple"
        }
      ],
      "stateMutability": "view",
      "type": "function"
    },
    {
      "inputs": [],
      "name": "getListPrice",
      "outputs": [
        {
          "internalType": "uint256",
          "name": "",
          "type": "uint256"
        }
      ],
      "stateMutability": "view",
      "type": "function"
    },
    {
      "inputs": [
        {
          "internalType": "uint256",
          "name": "tokenId",
          "type": "uint256"
        }
      ],
      "name": "getListedTokenById",
      "outputs": [
        {
          "components": [
            {
              "internalType": "uint256",
              "name": "tokenId",
              "type": "uint256"
            },
            {
              "internalType": "address payable",
              "name": "owner",
              "type": "address"
            },
            {
              "internalType": "address payable",
              "name": "seller",
              "type": "address"
            },
            {
              "internalType": "uint256",
              "name": "price",
              "type": "uint256"
            },
            {
              "internalType": "bool",
              "name": "currentlyListed",
              "type": "bool"
            }
          ],
          "internalType": "struct NFTMarketplace.ListedToken",
          "name": "",
          "type": "tuple"
        }
      ],
      "stateMutability": "view",
      "type": "function"
    },
    {
      "inputs": [],
      "name": "getMyNFTs",
      "outputs": [
        {
          "components": [
            {
              "internalType": "uint256",
              "name": "tokenId",
              "type": "uint256"
            },
            {
              "internalType": "address payable",
              "name": "owner",
              "type": "address"
            },
            {
              "internalType": "address payable",
              "name": "seller",
              "type": "address"
            },
            {
              "internalType": "uint256",
              "name": "price",
              "type": "uint256"
            },
            {
              "internalType": "bool",
              "name": "currentlyListed",
              "type": "bool"
            }
          ],
          "internalType": "struct NFTMarketplace.ListedToken[]",
          "name": "",
          "type": "tuple[]"
        }
      ],
      "stateMutability": "view",
      "type": "function"
    },
    {
      "inputs": [
        {
          "internalType": "address",
          "name": "owner",
          "type": "address"
        },
        {
          "internalType": "address",
          "name": "operator",
          "type": "address"
        }
      ],
      "name": "isApprovedForAll",
      "outputs": [
        {
          "internalType": "bool",
          "name": "",
          "type": "bool"
        }
      ],
      "stateMutability": "view",
      "type": "function"
    },
    {
      "inputs": [],
      "name": "name",
      "outputs": [
        {
          "internalType": "string",
          "name": "",
          "type": "string"
        }
      ],
      "stateMutability": "view",
      "type": "function"
    },
    {
      "inputs": [],
      "name": "owner",
      "outputs": [
        {
          "internalType": "address",
          "name": "",
          "type": "address"
        }
      ],
      "stateMutability": "view",
      "type": "function"
    },
    {
      "inputs": [
        {
          "internalType": "uint256",
          "name": "tokenId",
          "type": "uint256"
        }
      ],
      "name": "ownerOf",
      "outputs": [
        {
          "internalType": "address",
          "name": "",
          "type": "address"
        }
      ],
      "stateMutability": "view",
      "type": "function"
    },
    {
      "inputs": [],
      "name": "renounceOwnership",
      "outputs": [],
      "stateMutability": "nonpayable",
      "type": "function"
    },
    {
      "inputs": [
        {
          "internalType": "address",
          "name": "from",
          "type": "address"
        },
        {
          "internalType": "address",
          "name": "to",
          "type": "address"
        },
        {
          "internalType": "uint256",
          "name": "tokenId",
          "type": "uint256"
        }
      ],
      "name": "safeTransferFrom",
      "outputs": [],
      "stateMutability": "nonpayable",
      "type": "function"
    },
    {
      "inputs": [
        {
          "internalType": "address",
          "name": "from",
          "type": "address"
        },
        {
          "internalType": "address",
          "name": "to",
          "type": "address"
        },
        {
          "internalType": "uint256",
          "name": "tokenId",
          "type": "uint256"
        },
        {
          "internalType": "bytes",
          "name": "data",
          "type": "bytes"
        }
      ],
      "name": "safeTransferFrom",
      "outputs": [],
      "stateMutability": "nonpayable",
      "type": "function"
    },
    {
      "inputs": [
        {
          "internalType": "address",
          "name": "operator",
          "type": "address"
        },
        {
          "internalType": "bool",
          "name": "approved",
          "type": "bool"
        }
      ],
      "name": "setApprovalForAll",
      "outputs": [],
      "stateMutability": "nonpayable",
      "type": "function"
    },
    {
      "inputs": [
        {
          "internalType": "bytes4",
          "name": "interfaceId",
          "type": "bytes4"
        }
      ],
      "name": "supportsInterface",
      "outputs": [
        {
          "internalType": "bool",
          "name": "",
          "type": "bool"
        }
      ],
      "stateMutability": "view",
      "type": "function"
    },
    {
      "inputs": [],
      "name": "symbol",
      "outputs": [
        {
          "internalType": "string",
          "name": "",
          "type": "string"
        }
      ],
      "stateMutability": "view",
      "type": "function"
    },
    {
      "inputs": [
        {
          "internalType": "uint256",
          "name": "tokenId",
          "type": "uint256"
        }
      ],
      "name": "tokenURI",
      "outputs": [
        {
          "internalType": "string",
          "name": "",
          "type": "string"
        }
      ],
      "stateMutability": "view",
      "type": "function"
    },
    {
      "inputs": [
        {
          "internalType": "address",
          "name": "from",
          "type": "address"
        },
        {
          "internalType": "address",
          "name": "to",
          "type": "address"
        },
        {
          "internalType": "uint256",
          "name": "tokenId",
          "type": "uint256"
        }
      ],
      "name": "transferFrom",
      "outputs": [],
      "stateMutability": "nonpayable",
      "type": "function"
    },
    {
      "inputs": [
        {
          "internalType": "address",
          "name": "newOwner",
          "type": "address"
        }
      ],
      "name": "transferOwnership",
      "outputs": [],
      "stateMutability": "nonpayable",
      "type": "function"
    },
    {
      "inputs": [
        {
          "internalType": "uint256",
          "name": "_listPrice",
          "type": "uint256"
        }
      ],
      "name": "updateListPrice",
      "outputs": [],
      "stateMutability": "payable",
      "type": "function"
    }
  ],
  "bytecode": "0x6080604052662386f26fc10000600a553480156200001c57600080fd5b50604080518082018252600e81526d4e46544d61726b6574706c61636560901b6020808301918252835180850190945260048452634e46544d60e01b9084015281519192916200006f91600091620000fe565b50805162000085906001906020840190620000fe565b505050620000a26200009c620000a860201b60201c565b620000ac565b620001e1565b3390565b600780546001600160a01b038381166001600160a01b0319831681179093556040519116919082907f8be0079c531659141344cd1fd0a4f28419497f9722a3daafe3b4186f6b6457e090600090a35050565b8280546200010c90620001a4565b90600052602060002090601f0160209004810192826200013057600085556200017b565b82601f106200014b57805160ff19168380011785556200017b565b828001600101855582156200017b579182015b828111156200017b5782518255916020019190600101906200015e565b50620001899291506200018d565b5090565b5b808211156200018957600081556001016200018e565b600181811c90821680620001b957607f821691505b60208210811415620001db57634e487b7160e01b600052602260045260246000fd5b50919050565b61210f80620001f16000396000f3fe6080604052600436106101665760003560e01c80638da5cb5b116100d1578063c87b56dd1161008a578063e985e9c511610064578063e985e9c5146103f5578063eda187dd1461043e578063ef2d17461461045e578063f2fde38b1461047357600080fd5b8063c87b56dd1461039e578063d1a88ae5146103be578063e0391b09146103e057600080fd5b80638da5cb5b1461030557806395d89b41146103235780639b1225c414610338578063a22cb4651461034b578063b88d4fde1461036b578063c322579c1461038b57600080fd5b8063629cb2e411610123578063629cb2e41461025c5780636352211e1461027e57806368f1945f1461029e57806370a08231146102bd578063715018a6146102dd57806372b3b620146102f257600080fd5b806301ffc9a71461016b57806306fdde03146101a0578063081812fc146101c2578063095ea7b3146101fa57806323b872dd1461021c57806342842e0e1461023c575b600080fd5b34801561017757600080fd5b5061018b610186366004611d2c565b610493565b60405190151581526020015b60405180910390f35b3480156101ac57600080fd5b506101b56104e5565b6040516101979190611ef8565b3480156101ce57600080fd5b506101e26101dd366004611dba565b610577565b6040516001600160a01b039091168152602001610197565b34801561020657600080fd5b5061021a610215366004611d03565b61059e565b005b34801561022857600080fd5b5061021a610237366004611c15565b6106b9565b34801561024857600080fd5b5061021a610257366004611c15565b6106ea565b34801561026857600080fd5b50610271610705565b6040516101979190611eaa565b34801561028a57600080fd5b506101e2610299366004611dba565b610948565b3480156102aa57600080fd5b50600a545b604051908152602001610197565b3480156102c957600080fd5b506102af6102d8366004611bc9565b6109a8565b3480156102e957600080fd5b5061021a610a2e565b6102af610300366004611d64565b610a42565b34801561031157600080fd5b506007546001600160a01b03166101e2565b34801561032f57600080fd5b506101b5610a84565b61021a610346366004611dba565b610a93565b34801561035757600080fd5b5061021a610366366004611cc9565b610bf1565b34801561037757600080fd5b5061021a610386366004611c50565b610c00565b61021a610399366004611dba565b610c32565b3480156103aa57600080fd5b506101b56103b9366004611dba565b610c3f565b3480156103ca57600080fd5b506103d3610d50565b6040516101979190611fef565b3480156103ec57600080fd5b50610271610dc7565b34801561040157600080fd5b5061018b610410366004611be3565b6001600160a01b03918216600090815260056020908152604080832093909416825291909152205460ff1690565b34801561044a57600080fd5b506103d3610459366004611dba565b610f0e565b34801561046a57600080fd5b506102af610f78565b34801561047f57600080fd5b5061021a61048e366004611bc9565b610f88565b60006001600160e01b031982166380ac58cd60e01b14806104c457506001600160e01b03198216635b5e139f60e01b145b806104df57506301ffc9a760e01b6001600160e01b03198316145b92915050565b6060600080546104f490612041565b80601f016020809104026020016040519081016040528092919081815260200182805461052090612041565b801561056d5780601f106105425761010080835404028352916020019161056d565b820191906000526020600020905b81548152906001019060200180831161055057829003601f168201915b5050505050905090565b600061058282611001565b506000908152600460205260409020546001600160a01b031690565b60006105a982610948565b9050806001600160a01b0316836001600160a01b0316141561061c5760405162461bcd60e51b815260206004820152602160248201527f4552433732313a20617070726f76616c20746f2063757272656e74206f776e656044820152603960f91b60648201526084015b60405180910390fd5b336001600160a01b038216148061063857506106388133610410565b6106aa5760405162461bcd60e51b815260206004820152603d60248201527f4552433732313a20617070726f76652063616c6c6572206973206e6f7420746f60448201527f6b656e206f776e6572206f7220617070726f76656420666f7220616c6c0000006064820152608401610613565b6106b48383611060565b505050565b6106c333826110ce565b6106df5760405162461bcd60e51b815260040161061390611f0b565b6106b483838361114c565b6106b483838360405180602001604052806000815250610c00565b6060600061071260085490565b905060008080805b848110156107aa5733600b6000610732846001611ffd565b81526020810191909152604001600020600101546001600160a01b03161480610785575033600b6000610766846001611ffd565b81526020810191909152604001600020600201546001600160a01b0316145b1561079857610795600185611ffd565b93505b806107a28161207c565b91505061071a565b5060008367ffffffffffffffff8111156107d457634e487b7160e01b600052604160045260246000fd5b60405190808252806020026020018201604052801561080d57816020015b6107fa611a70565b8152602001906001900390816107f25790505b50905060005b8581101561093e5733600b600061082b846001611ffd565b81526020810191909152604001600020600101546001600160a01b0316148061087e575033600b600061085f846001611ffd565b81526020810191909152604001600020600201546001600160a01b0316145b1561092c5761088e816001611ffd565b6000818152600b6020908152604091829020825160a0810184528154815260018201546001600160a01b039081169382019390935260028201549092169282019290925260038201546060820152600482015460ff16151560808201528451929550909184908790811061091257634e487b7160e01b600052603260045260246000fd5b6020908102919091010152610928600186611ffd565b9450505b806109368161207c565b915050610813565b5095945050505050565b6000818152600260205260408120546001600160a01b0316806104df5760405162461bcd60e51b8152602060048201526018602482015277115490cdcc8c4e881a5b9d985b1a59081d1bdad95b88125160421b6044820152606401610613565b60006001600160a01b038216610a125760405162461bcd60e51b815260206004820152602960248201527f4552433732313a2061646472657373207a65726f206973206e6f7420612076616044820152683634b21037bbb732b960b91b6064820152608401610613565b506001600160a01b031660009081526003602052604090205490565b610a366112b0565b610a40600061130a565b565b6000610a52600880546001019055565b6000610a5d60085490565b9050610a69338261135c565b610a738185611376565b610a7d8184611410565b9392505050565b6060600180546104f490612041565b6000818152600b6020526040902060030154348114610b1a5760405162461bcd60e51b815260206004820152603b60248201527f506c656173657375626d6974207468652061736b696e6720707269636520666f60448201527f72746865204e465420696e6f7264657220746f707572636861736500000000006064820152608401610613565b6000828152600b602052604090206002810180546004909201805460ff191660011790556001600160a01b03198216331790556001600160a01b0316610b64600980546001019055565b610b6f30338561114c565b610b79308461059e565b600754600a546040516001600160a01b039092169181156108fc0291906000818181858888f19350505050158015610bb5573d6000803e3d6000fd5b506040516001600160a01b038216903480156108fc02916000818181858888f19350505050158015610beb573d6000803e3d6000fd5b50505050565b610bfc3383836114ad565b5050565b610c0a33836110ce565b610c265760405162461bcd60e51b815260040161061390611f0b565b610beb8484848461157c565b610c3a6112b0565b600a55565b6060610c4a82611001565b60008281526006602052604081208054610c6390612041565b80601f0160208091040260200160405190810160405280929190818152602001828054610c8f90612041565b8015610cdc5780601f10610cb157610100808354040283529160200191610cdc565b820191906000526020600020905b815481529060010190602001808311610cbf57829003601f168201915b505050505090506000610cfa60408051602081019091526000815290565b9050805160001415610d0d575092915050565b815115610d3f578082604051602001610d27929190611e3e565b60405160208183030381529060405292505050919050565b610d48846115af565b949350505050565b610d58611a70565b6000610d6360085490565b6000908152600b6020908152604091829020825160a0810184528154815260018201546001600160a01b03908116938201939093526002820154909216928201929092526003820154606082015260049091015460ff161515608082015292915050565b60606000610dd460085490565b905060008167ffffffffffffffff811115610dff57634e487b7160e01b600052604160045260246000fd5b604051908082528060200260200182016040528015610e3857816020015b610e25611a70565b815260200190600190039081610e1d5790505b5090506000805b83811015610f05576000610e54826001611ffd565b6000818152600b6020908152604091829020825160a0810184528154815260018201546001600160a01b039081169382019390935260028201549092169282019290925260038201546060820152600482015460ff161515608082015286519293509091869086908110610ed857634e487b7160e01b600052603260045260246000fd5b6020908102919091010152610eee600185611ffd565b935050508080610efd9061207c565b915050610e3f565b50909392505050565b610f16611a70565b506000908152600b6020908152604091829020825160a0810184528154815260018201546001600160a01b03908116938201939093526002820154909216928201929092526003820154606082015260049091015460ff161515608082015290565b6000610f8360085490565b905090565b610f906112b0565b6001600160a01b038116610ff55760405162461bcd60e51b815260206004820152602660248201527f4f776e61626c653a206e6577206f776e657220697320746865207a65726f206160448201526564647265737360d01b6064820152608401610613565b610ffe8161130a565b50565b6000818152600260205260409020546001600160a01b0316610ffe5760405162461bcd60e51b8152602060048201526018602482015277115490cdcc8c4e881a5b9d985b1a59081d1bdad95b88125160421b6044820152606401610613565b600081815260046020526040902080546001600160a01b0319166001600160a01b038416908117909155819061109582610948565b6001600160a01b03167f8c5be1e5ebec7d5bd14f71427d1e84f3dd0314c0f7b2291e5b200ac8c7c3b92560405160405180910390a45050565b6000806110da83610948565b9050806001600160a01b0316846001600160a01b0316148061112157506001600160a01b0380821660009081526005602090815260408083209388168352929052205460ff165b80610d485750836001600160a01b031661113a84610577565b6001600160a01b031614949350505050565b826001600160a01b031661115f82610948565b6001600160a01b0316146111855760405162461bcd60e51b815260040161061390611faa565b6001600160a01b0382166111e75760405162461bcd60e51b8152602060048201526024808201527f4552433732313a207472616e7366657220746f20746865207a65726f206164646044820152637265737360e01b6064820152608401610613565b826001600160a01b03166111fa82610948565b6001600160a01b0316146112205760405162461bcd60e51b815260040161061390611faa565b600081815260046020908152604080832080546001600160a01b03199081169091556001600160a01b0387811680865260038552838620805460001901905590871680865283862080546001019055868652600290945282852080549092168417909155905184937fddf252ad1be2c89b69c2b068fc378daa952ba7f163c4a11628f55a4df523b3ef91a4505050565b6007546001600160a01b03163314610a405760405162461bcd60e51b815260206004820181905260248201527f4f776e61626c653a2063616c6c6572206973206e6f7420746865206f776e65726044820152606401610613565b600780546001600160a01b038381166001600160a01b0319831681179093556040519116919082907f8be0079c531659141344cd1fd0a4f28419497f9722a3daafe3b4186f6b6457e090600090a35050565b610bfc828260405180602001604052806000815250611622565b6000828152600260205260409020546001600160a01b03166113f15760405162461bcd60e51b815260206004820152602e60248201527f45524337323155524953746f726167653a2055524920736574206f66206e6f6e60448201526d32bc34b9ba32b73a103a37b5b2b760911b6064820152608401610613565b600082815260066020908152604090912082516106b492840190611a9e565b6040805160a081018252838152306020808301828152338486018181526060860188815260016080880181815260008c8152600b9097529890952096518755925193860180546001600160a01b039586166001600160a01b03199182161790915590516002870180549190951691161790925551600384015592516004909201805492151560ff1990931692909217909155610bfc91908461114c565b816001600160a01b0316836001600160a01b0316141561150f5760405162461bcd60e51b815260206004820152601960248201527f4552433732313a20617070726f766520746f2063616c6c6572000000000000006044820152606401610613565b6001600160a01b03838116600081815260056020908152604080832094871680845294825291829020805460ff191686151590811790915591519182527f17307eab39ab6107e8899845ad3d59bd9653f200f220920489ca2b5937696c31910160405180910390a3505050565b61158784848461114c565b61159384848484611655565b610beb5760405162461bcd60e51b815260040161061390611f58565b60606115ba82611001565b60006115d160408051602081019091526000815290565b905060008151116115f15760405180602001604052806000815250610a7d565b806115fb84611762565b60405160200161160c929190611e3e565b6040516020818303038152906040529392505050565b61162c838361180d565b6116396000848484611655565b6106b45760405162461bcd60e51b815260040161061390611f58565b60006001600160a01b0384163b1561175757604051630a85bd0160e11b81526001600160a01b0385169063150b7a0290611699903390899088908890600401611e6d565b602060405180830381600087803b1580156116b357600080fd5b505af19250505080156116e3575060408051601f3d908101601f191682019092526116e091810190611d48565b60015b61173d573d808015611711576040519150601f19603f3d011682016040523d82523d6000602084013e611716565b606091505b5080516117355760405162461bcd60e51b815260040161061390611f58565b805181602001fd5b6001600160e01b031916630a85bd0160e11b149050610d48565b506001949350505050565b6060600061176f83611998565b600101905060008167ffffffffffffffff81111561179d57634e487b7160e01b600052604160045260246000fd5b6040519080825280601f01601f1916602001820160405280156117c7576020820181803683370190505b5090508181016020015b600019016f181899199a1a9b1b9c1cb0b131b232b360811b600a86061a8153600a850494508461180057611805565b6117d1565b509392505050565b6001600160a01b0382166118635760405162461bcd60e51b815260206004820181905260248201527f4552433732313a206d696e7420746f20746865207a65726f20616464726573736044820152606401610613565b6000818152600260205260409020546001600160a01b0316156118c85760405162461bcd60e51b815260206004820152601c60248201527f4552433732313a20746f6b656e20616c7265616479206d696e746564000000006044820152606401610613565b6000818152600260205260409020546001600160a01b03161561192d5760405162461bcd60e51b815260206004820152601c60248201527f4552433732313a20746f6b656e20616c7265616479206d696e746564000000006044820152606401610613565b6001600160a01b038216600081815260036020908152604080832080546001019055848352600290915280822080546001600160a01b0319168417905551839291907fddf252ad1be2c89b69c2b068fc378daa952ba7f163c4a11628f55a4df523b3ef908290a45050565b60008072184f03e93ff9f4daa797ed6e38ed64bf6a1f0160401b83106119d75772184f03e93ff9f4daa797ed6e38ed64bf6a1f0160401b830492506040015b6d04ee2d6d415b85acef81000000008310611a03576d04ee2d6d415b85acef8100000000830492506020015b662386f26fc100008310611a2157662386f26fc10000830492506010015b6305f5e1008310611a39576305f5e100830492506008015b6127108310611a4d57612710830492506004015b60648310611a5f576064830492506002015b600a83106104df5760010192915050565b6040805160a08101825260008082526020820181905291810182905260608101829052608081019190915290565b828054611aaa90612041565b90600052602060002090601f016020900481019282611acc5760008555611b12565b82601f10611ae557805160ff1916838001178555611b12565b82800160010185558215611b12579182015b82811115611b12578251825591602001919060010190611af7565b50611b1e929150611b22565b5090565b5b80821115611b1e5760008155600101611b23565b600067ffffffffffffffff80841115611b5257611b526120ad565b604051601f8501601f19908116603f01168101908282118183101715611b7a57611b7a6120ad565b81604052809350858152868686011115611b9357600080fd5b858560208301376000602087830101525050509392505050565b80356001600160a01b0381168114611bc457600080fd5b919050565b600060208284031215611bda578081fd5b610a7d82611bad565b60008060408385031215611bf5578081fd5b611bfe83611bad565b9150611c0c60208401611bad565b90509250929050565b600080600060608486031215611c29578081fd5b611c3284611bad565b9250611c4060208501611bad565b9150604084013590509250925092565b60008060008060808587031215611c65578081fd5b611c6e85611bad565b9350611c7c60208601611bad565b925060408501359150606085013567ffffffffffffffff811115611c9e578182fd5b8501601f81018713611cae578182fd5b611cbd87823560208401611b37565b91505092959194509250565b60008060408385031215611cdb578182fd5b611ce483611bad565b915060208301358015158114611cf8578182fd5b809150509250929050565b60008060408385031215611d15578182fd5b611d1e83611bad565b946020939093013593505050565b600060208284031215611d3d578081fd5b8135610a7d816120c3565b600060208284031215611d59578081fd5b8151610a7d816120c3565b60008060408385031215611d76578182fd5b823567ffffffffffffffff811115611d8c578283fd5b8301601f81018513611d9c578283fd5b611dab85823560208401611b37565b95602094909401359450505050565b600060208284031215611dcb578081fd5b5035919050565b60008151808452611dea816020860160208601612015565b601f01601f19169290920160200192915050565b805182526020808201516001600160a01b039081169184019190915260408083015190911690830152606080820151908301526080908101511515910152565b60008351611e50818460208801612015565b835190830190611e64818360208801612015565b01949350505050565b6001600160a01b0385811682528416602082015260408101839052608060608201819052600090611ea090830184611dd2565b9695505050505050565b6020808252825182820181905260009190848201906040850190845b81811015611eec57611ed9838551611dfe565b9284019260a09290920191600101611ec6565b50909695505050505050565b602081526000610a7d6020830184611dd2565b6020808252602d908201527f4552433732313a2063616c6c6572206973206e6f7420746f6b656e206f776e6560408201526c1c881bdc88185c1c1c9bdd9959609a1b606082015260800190565b60208082526032908201527f4552433732313a207472616e7366657220746f206e6f6e20455243373231526560408201527131b2b4bb32b91034b6b83632b6b2b73a32b960711b606082015260800190565b60208082526025908201527f4552433732313a207472616e736665722066726f6d20696e636f72726563742060408201526437bbb732b960d91b606082015260800190565b60a081016104df8284611dfe565b6000821982111561201057612010612097565b500190565b60005b83811015612030578181015183820152602001612018565b83811115610beb5750506000910152565b600181811c9082168061205557607f821691505b6020821081141561207657634e487b7160e01b600052602260045260246000fd5b50919050565b600060001982141561209057612090612097565b5060010190565b634e487b7160e01b600052601160045260246000fd5b634e487b7160e01b600052604160045260246000fd5b6001600160e01b031981168114610ffe57600080fdfea26469706673582212205885bff836b38c182b0d4380e2909adef64f420e4f1b6ff880b1c5c0bfc006d664736f6c63430008040033",
  "linkReferences": {},
  "deployedLinkReferences": {}
}